:100000000EC015C014C013C012C011C010C00FC064
:100010000EC00DC00CC00BC00AC009C008C011241E
:100020001FBECFE5D2E0DEBFCDBF31D038C0E8CFB4
:1000300088E184BB86EA87B980E883B986EB86B914
:1000400086B1806586B9089582E088BB87BB86E467
:1000500089BD81E083BF089590E09A95880F991F2C
:1000600022B72A5B29BD20E128BF60E1AC014170C5
:1000700055279695879508B604FEFDCF440F48BBDB
:1000800039B53A5B39BD68BF215081F70895DCDF8F
:10009000CFDF349BFECF85B1349ADEDFFACFF89400
:0200A000FFCF90
:00000001FF
